:100000000EC01DC01CC01BC01BC019C018C017C02B
:1000100016C015C014C013C012C011C010C01124E6
:100020001FBECFE5D1E0DEBFCDBF20E0A0E6B0E04F
:1000300001C01D92A336B207E1F744D04CC0E0CF17
:100040001F920F920FB60F9211248F939F9380915E
:100050006200882319F0813089F01DC08091600012
:1000600090916100019690936100809360008F3FB2
:10007000910589F481E0809362000DC08091600059
:100080009091610001979093610080936000892BAB
:1000900011F410926200809160008EBD9F918F914B
:1000A0000F900FBE0F901F90189580E680BF80B70D
:1000B000846080BF1EBC82E087BB89B7846089BF33
:1000C00078940895F2DF85B7806285BF889585B7FB
:0A00D0008F7D85BFF8CFF894FFCFB5
:00000001FF
